S02500004F62737461636C652041766F6964616E636520526F626F742056312E302E73726563FD
S11300000C942A000C944C000C9475000C948400FD
S11300100C9447000C94D6000C9447000C944700B1
S11300200C9447000C94AD000C9447000C944700CA
S11300300C9447000C9447000C9447000C94470020
S11300400C9447000C9447000C9447000C94470010
S11300500C94470011241FBECFE5D8E0DEBFCDBF0E
S113006010E0A0E6B0E0E6E6F2E002C005900D92F2
S1130070A036B107D9F720E0A0E6B0E001C01D9298
S1130080A037B207E1F70E9449000C9431010C94A7
S1130090000080E090E008951F920F920FB60F9237
S11300A011242F933F934F935F936F937F938F9379
S11300B09F93AF93BF93EF93FF93E0916300F0910D
S11300C06400309709F00995FF91EF91BF91AF91CA
S11300D09F918F917F916F915F914F913F912F915C
S11300E00F900FBE0F901F9018951F920F920FB68E
S11300F00F9211248F9381E0809360008F910F9071
S11301000FBE0F901F9018951F920F920FB60F926B
S113011011242F933F934F935F936F937F938F9308
S11301209F93AF93BF93EF93FF93E0916100F0919E
S11301306200309709F00995FF91EF91BF91AF915B
S11301409F918F917F916F915F914F913F912F91EB
S11301500F900FBE0F901F9018951F920F920FB61D
S11301600F9211242F933F934F935F936F937F9339
S11301708F939F93AF93BF93EF93FF93E0916500A9
S1130180F0916600309709F00995FF91EF91BF91C6
S1130190AF919F918F917F916F915F914F913F911B
S11301A02F910F900FBE0F901F9018951F920F92D2
S11301B00FB60F9211244F935F936F937F938F9396
S11301C09F93AF93BF93809160008130E9F5809154
S11301D0670090916800A0916900B0916A00409115
S11301E06B0050916C0060916D0070916E008417EB
S11301F09507A607B70764F40196A11DB11D809366
S1130200670090936800A0936900B0936A001CC0D3
S113021084179507A607B707B9F4892B8A2B8B2B6C
S113022099F0109267001092680010926900109281
S11302306A0080916F00883020F48F5F80936F0094
S113024003C081E080936F00BF91AF919F918F9124
S11302507F916F915F914F910F900FBE0F901F9000
S10902601895F894FFCF8D
S9030000FC
